S0220000536D6172745F476C6F766573205F416D69745F50726F6A6563742E73726563EC
S11300000C942A000C9447000C9447000C9447006D
S11300100C9447000C9447000C9447000C94470040
S11300200C9447000C9447000C9447000C94470030
S11300300C9447000C9447000C9447000C94470020
S11300400C9447000C9447000C9447000C94470010
S11300500C94470011241FBECFE5D8E0DEBFCDBF0E
S113006010E0A0E6B0E0E8E8F8E002C005900D92E8
S1130070A23AB107D9F720E0A2EAB0E001C01D928C
S1130080AC3AB207E1F70E941B040C9442040C94AE
S1130090000087B1806487B987B18F7787B987B14A
S11300A08F7D87B986B18F7D86B986B1877F86B902
S11300B086B1816086B986B1826086B986B1846072
S11300C086B986B1806886B908958032B0F4611526
S11300D0710599F097B1907E97B997B1892B87B93B
S11300E086B1806486B9349BFECF86B1806186B9BF
S11300F084B195B1FB019183808308950F931F937D
S1130100CF93DF9300D0CDB7DEB78B01BE016F5F15
S11301107F4F0E94650029813A81A8E8B3E10E94DB
S11301203304DC01CB01072E7AE0B695A7959795A9
S113013087957A95D1F7702DF801918380830F907C
S11301400F90DF91CF911F910F910895843008F0A3
S113015072C0683008F06FC0423008F06CC0813063
S113016001F130F08230B1F1833009F44CC00895CC
S1130170413059F42AB381E090E002C0880F991FFE
S11301806A95E2F7822B8ABB08952AB381E090E056
S113019002C0880F991F6A95E2F7809582238ABB73
S11301A00895413059F427B381E090E002C0880FEC
S11301B0991F6A95E2F7822B87BB089527B381E0E4
S11301C090E002C0880F991F6A95E2F78095822318
S11301D087BB0895413059F424B381E090E002C014
S11301E0880F991F6A95E2F7822B84BB089524B384
S11301F081E090E002C0880F991F6A95E2F780952C
S1130200822384BB0895413059F421B381E090E006
S113021002C0880F991F6A95E2F7822B81BB08956B
S113022021B381E090E002C0880F991F6A95E2F73C
S11302308095822381BB0895843008F072C06830B1
S113024008F06FC0423008F06CC0813001F130F02A
S11302508230B1F1833009F44CC00895413059F42F
S11302602BB381E090E002C0880F991F6A95E2F7F2
S1130270822B8BBB08952BB381E090E002C0880FE2
S1130280991F6A95E2F7809582238BBB08954130CC
S113029059F428B381E090E002C0880F991F6A9551
S11302A0E2F7822B88BB089528B381E090E002C076
S11302B0880F991F6A95E2F78095822388BB089579
S11302C0413059F425B381E090E002C0880F991FB2
S11302D06A95E2F7822B85BB089525B381E090E00F
S11302E002C0880F991F6A95E2F78095822385BB27
S11302F00895413059F422B381E090E002C0880FA0
S1130300991F6A95E2F7822B82BB089522B381E09C
S113031090E002C0880F991F6A95E2F780958223C6
S113032082BB089540E062E080E00E94A60040E0C5
S113033064E080E00E94A60040E065E080E00E9466
S1130340A60040E066E080E00E94A60040E067E08E
S113035080E00E94A600089566EA70E082E00E94B0
S11303607E0064EA70E084E00E947E006AEA70E045
S113037085E00E947E0068EA70E086E00E947E00CC
S113038062EA70E087E00E947E0008958091A200F6
S11303909091A300883E23E0920708F52091A800DD
S11303A03091A90029333440D0F02091AA00309133
S11303B0AB002B37324098F42091A4003091A50073
S11303C0223A334060F42091A6003091A7002236EF
S11303D0324028F480E690E00E94FB030895873BB6
S11303E023E0920708F12091A8003091A9002C3451
S11303F03440D0F42091AA003091AB00283532402B
S113040098F42091A4003091A5002037334060F483
S11304102091A6003091A7002637324028F484E6C4
S113042090E00E94FB0308958C3424E0920708F5C1
S11304302091A8003091A900283E3340D0F42091A7
S1130440AA003091AB002032334098F42091A400EC
S11304503091A5002438334060F42091A6003091F7
S1130460A7002A38324028F488E690E00E94FB0373
S11304700895863B23E0920708F52091A800309167
S1130480A9002C343440D0F42091AA003091AB0060
S11304902A38324098F42091A4003091A500223AE1
S11304A0334060F42091A6003091A7002A383240EE
S11304B028F487E790E00E94FB0308958A3624E03D
S11304C0920708F52091A8003091A900203D324000
S11304D0D0F42091AA003091AB002835324098F432
S11304E02091A4003091A5002032334060F4209183
S11304F0A6003091A7002A33324028F488E890E01F
S11305000E94FB0308958E3D934008F58091A80056
S11305109091A900863B9340D0F48091AA009091D9
S1130520AB008438934098F48091A4009091A50086
S11305308239944060F48091A6009091A7008A3893
S1130540924028F481E990E00E94FB03089589E930
S113055090E00E94FB034FE78FEA92E04150804015
S11305609040E1F700C000008EE20E94C5032FE72F
S11305704FEA82E0215040408040E1F700C0000093
S11305808EE20E94C5039FE72FEA42E0915020408B
S11305904040E1F700C000008EE20E94C5038FE7EF
S11305A09FEA22E0815090402040E1F700C0000023
S11305B08EE20E94C5034FEF86E791E041508040F0
S11305C09040E1F700C000008EE20E94C5032FEFC7
S11305D046E781E0215040408040E1F700C0000040
S11305E08EE20E94C5030895CF93C82F80FF06C0F2
S11305F041E063E082E00E941C0105C040E063E04A
S113060082E00E941C01C1FF06C041E064E082E078
S11306100E941C0105C040E064E082E00E941C01CD
S1130620C2FF06C041E065E082E00E941C0105C0F3
S113063040E065E082E00E941C01C3FF06C041E087
S113064066E082E00E941C0105C040E066E082E0B2
S11306500E941C01CF91089541E063E082E00E9472
S1130660A60041E064E082E00E94A60041E065E06B
S113067082E00E94A60041E066E082E00E94A600BB
S113068041E061E081E00E94A60041E062E081E097
S11306900E94A60041E063E081E00E94A600089564
S11306A0CF93C82F40E061E081E00E941C0140E04C
S11306B062E081E00E941C018C2F82958F700E9461
S11306C0F40241E063E081E00E941C018FE99FE0B5
S11306D00197F1F700C0000040E063E081E00E9470
S11306E01C018C2F0E94F40241E063E081E00E942F
S11306F01C018FE99FE00197F1F700C0000040E082
S113070063E081E00E941C01CF9108952FE785EBFF
S113071091E0215080409040E1F700C0000040E0AB
S113072061E081E00E941C0140E062E081E00E94FF
S11307301C0182E00E94F40241E063E081E00E9437
S11307401C018FE99FE00197F1F700C0000040E031
S113075063E081E00E941C0188E20E94500390EF54
S11307609A95F1F78FE00E94500320EF2A95F1F754
S113077081E00E9450038FE39FE10197F1F700C0ED
S1130780000086E00E9450030895CF93C82F41E0F3
S113079061E081E00E941C0140E062E081E00E948F
S11307A01C018C2F82958F700E94F40241E063E05B
S11307B081E00E941C018FE99FE00197F1F700C0DE
S11307C0000040E063E081E00E941C018C2F0E9445
S11307D0F40241E063E081E00E941C018FE99FE0A4
S11307E00197F1F700C0000040E063E081E00E945F
S11307F01C01CF9108950F931F93CF93009729F471
S11308000CC00E94C503CF5F02C08C01C0E0F80198
S1130810EC0FF11D80818111F4CFCF911F910F91C5
S1130820089581E00E9450038FE39FE10197F1F75F
S113083000C0000008950E942C030E9492010E94AF
S113084049000E9486030E94AC010E94C6012FEF5A
S113085087E893E1215080409040E1F700C0000018
S11308600E941104F0CFA29FB001B39FC001A39FC7
S1130870700D811D1124911DB29F700D811D1124D5
S10B0880911D0895F894FFCFC7
S1130888594F550047756E0049205761746368696C
S11308986E6720596F750054686174277320417717
S11308A865736F6D65202100476F6F64204A6F621E
S11308B800506572666563740052656164696E67A9
S10508C800002A
S9030000FC
